:020000040800F2
:10000000A0090020B9020008CB1C0008C71800088E
:10001000BD1B0008AB040008A92500080000000073
:10002000000000000000000000000000DB1F0008CE
:10003000AD04000800000000D91F0008DD1F000803
:10004000D3020008D3020008D3020008D30200083C
:10005000D3020008D3020008D3020008D30200082C
:10006000D3020008D3020008D3020008D30200081C
:10007000D3020008D3020008D3020008D30200080C
:10008000D3020008D3020008D3020008D3020008FC
:10009000D3020008D3020008D3020008D3020008EC
:1000A000D3020008D3020008D3020008D3020008DC
:1000B000D3020008D3020008D3020008D3020008CC
:1000C000D3020008D3020008D3020008D3020008BC
:1000D000D30200088D250008D3020008D3020008CF
:1000E000AF040008D3020008D3020008D3020008BE
:1000F000D3020008D3020008D3020008D30200088C
:10010000D3020008D3020008D3020008D30200087B
:10011000D3020008D3020008D3020008D30200086B
:10012000D3020008D3020008D3020008D30200085B
:10013000D3020008D3020008D3020008D30200084B
:10014000D3020008D3020008D3020008D30200083B
:10015000D3020008D3020008D3020008D30200082B
:10016000D3020008D3020008D3020008D30200081B
:10017000D3020008D3020008D3020008D30200080B
:10018000D3020008D3020008D3020008D3020008FB
:10019000D302000800000000D3020008D3020008C8
:1001A000D3020008D3020008D3020008D3020008DB
:1001B000D3020008D3020008D3020008D3020008CB
:1001C000D3020008D3020008D3020008D3020008BB
:1001D000D3020008D302000800F002F800F05CF837
:1001E0000AA090E8000C82448344AAF10107DA4592
:1001F00001D100F051F8AFF2090EBAE80F0013F088
:10020000010F18BFFB1A43F001031847582D0000D7
:10021000782D00000A444FF0000C10F8013B13F059
:10022000070408BF10F8014B1D1108BF10F8015B4F
:10023000641E05D010F8016B641E01F8016BF9D142
:1002400013F0080F1EBF10F8014BAD1C0C1B09D199
:100250006D1E58BF01F801CBFAD505E014F8016B0B
:1002600001F8016B6D1EF9D59142D6D3704700009D
:100270000023002400250026103A28BF78C1FBD8AF
:10028000520728BF30C148BF0B6070471FB502F04E
:1002900031FA1FBD10B510BD00F0D4F81146FFF7BC
:1002A000F5FF02F0DBF900F0F2F803B4FFF7F2FF1C
:1002B00003BC00F0F3F800000948804709480047F4
:1002C000FEE7FEE7FEE7FEE7FEE7FEE7FEE7FEE706
:1002D000FEE7FEE704480549054A064B7047000063
:1002E00049200008D9010008A0030020A00900202F
:1002F000A0050020A005002053EA020C00F0698050
:100300002DE9F04B4FF00006002B1FBFB3FA83F529
:1003100003FA05F424FA05F65E4012BF1643B2FA5A
:1003200082F502FA05F4C5F120051EBF22FA05FC8C
:1003300044EA0C04203556EA044C4FEA144418BF32
:10034000641C4FF000084FF00009904271EB030C61
:1003500039D3002919BFB1FA81F701FA07F6B0FACB
:1003600080F700FA07F6C7F120071EBF20FA07FC46
:1003700046EA0C062037B6FBF4FCA7EB0507103F56
:1003800007F01F0BCBF120060CFA0BFB2CFA06F63C
:1003900044BFB3460026202FA4BF5E464FF0000B9B
:1003A0005BEA060C08BF4FF0010B19EB0B09ABFB26
:1003B000027C48EB0608C01B06FB02CC0BFB03CCFF
:1003C00071EB0C01C1E70B46024641464846BDE8C9
:1003D000F08B13B54FF000004FF00001AFF3008039
:1003E000BDE81C4070474FF0000200B5134694462C
:1003F0009646203922BFA0E80C50A0E80C50B1F17D
:100400002001BFF4F7AF090728BFA0E80C5048BF90
:100410000CC05DF804EB890028BF40F8042B08BF2E
:10042000704748BF20F8022B11F0804F18BF00F82A
:10043000012B7047704770477047000000487047B5
:100440003C0300207546FFF7F9FFAE4605006946FC
:10045000534620F00700854618B020B5FFF73AFF55
:10046000BDE820404FF000064FF000074FF00008B5
:100470004FF0000B21F00701AC46ACE8C009ACE836
:10048000C009ACE8C009ACE8C0098D467047044615
:10049000AFF300802046FFF708FF00000149182055
:1004A000ABBEFEE7260002007047FEE770474FF440
:1004B000005000F083B872B6FEE710B590F8253012
:1004C00000210122022B03D00421C163012122E07B
:1004D00003681C6824F00E041C60836C1C6824F400
:1004E00080741C6003681C6824F001041C6090F890
:1004F0004430046C03F01F0302FA03F36360D0E995
:1005000013345C60436D33B11C6824F480741C6048
:10051000D0E916345C6080F82520002280F8242081
:10052000084610BD70B590F825200024012123460F
:10053000022A07D00422C26380F8251080F82430F4
:10054000012429E00268156825F00E05156002688F
:10055000156825F001051560826C156825F4807515
:10056000156090F84420056C02F01F0201FA02F2B7
:100570006A60D0E913255560426D32B1156825F4E3
:1005800080751560D0E91625556080F8251080F833
:100590002430816B01B18847204670BD10B501F051
:1005A00095FB054802230288511C01800321BDE808
:1005B0001040282001F060BC00000020044910B564
:1005C0000A68024202D00860FFF7E8FF10BD000091
:1005D000140401402DE9F04FDFF82092002301269A
:1005E0000324A9F1040B85B00F2709F1040AABF12C
:1005F000040EFAE006FA03F52A407CD091F804C014
:100600000CF0030CBCF1010F02D0BCF1020F26D19B
:10061000D0F808C0CDF800C04FEA430C04FA0CF83B
:10062000CDF810C0DDF800C02CEA080CCDF800C0F1
:10063000D1F80C80DDF810C008FA0CF8DDF800C025
:1006400048EA0C08C0F80880D0F804C02CEA050C71
:100650000D79C5F300159D4045EA0C0545600D79FF
:10066000ED43AD070ED0C5684FEA430804FA08FC15
:1006700025EA0C05D1F808C00CFA08FC4CEA050C78
:10068000C0F80CC00D7905F00305022D16D1DD0868
:1006900000EB850CCDF808C0DCF820805D074FEA40
:1006A000D56C07FA0CF528EA05080D6905FA0CF572
:1006B000DDF808C045EA0805CCF8205005684FEA87
:1006C000430CCDF808C004FA0CFC25EA0C0591F89F
:1006D00004C00CF00308DDF808C008FA0CF848EA7A
:1006E0000508C0F800804D6815F4403F7CD0444DAB
:1006F000D5F860C000E077E04CF0010CC5F860C0B0
:100700002D6E23F0030C05F0010500953D4D654469
:100710000295AD684FEA837C4FEA1C7807FA08FC23
:1007200025EA0C05B0F1904F06D0DFF8DCC060453B
:1007300005D14FF0010C20E04FF0000C1DE0DFF878
:10074000CCC0604502D14FF0020C16E0DFF8C0C00B
:10075000604502D14FF0030C0FE0DFF8B8C06045F0
:1007600002D14FF0040C08E0DFF8ACC0604502D1C4
:100770004FF0050C01E04FF0060C0CFA08FC4CEAB7
:10078000050C029DC5F808C0D9F80050CC46D1F838
:10079000048095435FEAC82800D51543CCF8005083
:1007A000DAF80050D446D1F8048095435FEA8828EF
:1007B00000D51543CCF80050DBF80050DC46D1F8EA
:1007C000048095435FEA883800D51543CCF8005083
:1007D000DEF80050F446D1F8048095435FEAC8384B
:1007E00000D51543CCF800505B1C0A6832FA03F5BB
:1007F0007FF400AF05B0BDE8F08F000008040140B1
:1008000000100240000001400004004800080048B9
:10081000000C00480010004800140048006908401F
:1008200000D0012070470AB1816170478162704732
:100830000148806870470000040000200248816879
:1008400042681144816070470400002010B5002404
:10085000032000F073F8002000F008F808B101242C
:1008600001E000F025F8204610BD000070B50E4EE6
:1008700005460024706898B14FF47A71B1FBF0F02E
:100880000A490968B1FBF0F000F0ACFD40B9102D49
:1008900006D200222946501E00F030F8356000E0F4
:1008A0000124204670BD000004000020100000203C
:1008B0000A4882B0016E41F001010166016E01F04B
:1008C00001010091816D41F080518165806D00F0E2
:1008D0008050009002B000F0A1B80000001002406B
:1008E000002809DB00F01F0201219140400980002F
:1008F00000F1E020C0F8001170470000F0B40E4B8A
:100900001B680C46C3F30223C3F10705042D00D96D
:100910000425191D072901D2002300E0DB1E012652
:1009200006FA05F1491E214099409E40761E164068
:100930003143F0BC01F058BE0CED00E0064900F078
:10094000070208684FF6FF03184040EA0220034AF6
:1009500010430860704700000CED00E00000FA054D
:100960002B492C4B0A6832214A432B4940B1B0F540
:10097000007F086829D020F4C06040F480602CE03B
:100980000868C0F34120022804D051F8800F20F4F9
:10099000807022E0D1F8800020F48070C1F88000DF
:1009A000086820F4C06040F400700860B2FBF3F007
:1009B000401C00E0401E4A69520501D50028F9D1CB
:1009C000486940050AD503207047C0F3412002283A
:1009D00006D051F8800F40F4807008600020704706
:1009E000D1F8800040F48070C1F88000086820F4DD
:1009F000C06040F400700860B2FBF3F0401C00E0FF
:100A0000401E4A695205DBD50028F9D1D8E700001D
:100A10001000002040420F00007000400248816832
:100A200041F4804181607047007000402DE9F84337
:100A3000044600680026BB4D00035ED5A86D002764
:100A4000C00008D4A86D40F08050A865A86D0127AB
:100A500000F080500090DFF8D092D9F8001041F4F7
:100A60008071C9F80010FFF7E3FE804606E000BF82
:100A7000FFF7DEFEA0EB080002282BD8D9F8000013
:100A8000C005F5D5D5F8900010F4407014D0216D54
:100A9000814211D0D5F89000D5F8901020F4407024
:100AA00041F48031C5F89010D5F8901021F48031D0
:100AB000C5F89010C5F89000C00711D0FFF7B8FE38
:100AC000804641F2883907E0FFF7B2FEA0EB08014B
:100AD000494501D903260BE0D5F890008007F3D5EE
:100AE000D5F89000216D20F440700843C5F89000BF
:100AF0001FB1A86D20F08050A8652078C00707D0EE
:100B0000D5F88800616820F003000843C5F8880024
:100B10002078800707D5D5F88800A16820F00C0060
:100B20000843C5F888002078400707D5D5F8880025
:100B3000E16820F030000843C5F8880020780007FD
:100B400007D5D5F88800216920F0C0000843C5F812
:100B500088002078C00607D5D5F88800616920F4A0
:100B600040700843C5F888002078800607D5D5F87E
:100B70008800A16920F440600843C5F88800207807
:100B8000400607D5D5F88800E16920F440500843B5
:100B9000C5F888002078000607D5D5F88800216AB6
:100BA00020F440400843C5F888002088C00507D5D8
:100BB000D5F88800616A20F440300843C5F8880001
:100BC0002068800307D5D5F89C00A16A20F00300B7
:100BD0000843C5F89C002088800507D5D5F8880013
:100BE000E16A20F440200843C5F8880020884005C9
:100BF0000FD5D5F88800216B20F440100843C5F8C4
:100C00008800206BB0F5801F03D1E86840F48010A5
:100C1000E860208800050FD5D5F88800616B20F4C6
:100C200040000843C5F88800606BB0F5800F03D121
:100C3000E86840F48010E8602088C0040FD5D5F83B
:100C40008800A16B20F040700843C5F88800A06BB5
:100C5000B0F1807F03D1E86840F48010E86020881C
:100C60004FF0006180040ED5D5F88800E26B20F0CB
:100C700040601043C5F88800E06B884203D1E86803
:100C800040F48010E860208840040ED5D5F8880034
:100C9000226C20F040601043C5F88800206C884228
:100CA00003D1E86840F48010E860208800040FD584
:100CB000D5F88800616C20F040500843C5F88800E2
:100CC000606CB0F1805F03D1E86840F48030E86088
:100CD0002068C0030FD5D5F88800A16C20F04040F3
:100CE0000843C5F88800A06CB0F1804F03D1E868D4
:100CF00040F48030E860206840030FD5D5F89C00B0
:100D0000E16C20F440100843C5F89C00E06CB0F59D
:100D1000001F03D1E86840F48010E8603046BDE869
:100D2000F883000000100240007000402DE9F047F9
:100D30000E4605004FF0000725D0DFF8AC81D8F84B
:100D4000000000F00F00B0420CD2D8F8001021F0E3
:100D50000F013143C8F80010D8F8000000F00F0070
:100D6000B04210D12968614CC80741F2883A5AD084
:100D70006868DFF87C91032808D0022820682DD00D
:100D8000400500282CDB0120BDE8F08720688001A9
:100D9000F9D5E06800F00302E068C0F30310401CDE
:100DA000032A19D0534A00BFB2FBF0F0E268C2F345
:100DB00006225043E268C2F34162521C5200B0FB6B
:100DC000F2F0484517D9A06810F0F00F0CD0880752
:100DD00011D5A86840B10EE0474AE5E78003D0E7A7
:100DE00000F0B6F8484506D9A06820F0F00040F0C1
:100DF0008000A0608027A068696820F00300084395
:100E0000A060FFF715FD814606E000BFFFF710FD6B
:100E1000A0EB090151453AD8A068696800F00C00C0
:100E2000B0EB810FF2D12868810714D5400703D5B4
:100E3000A06840F4E060A0602878000705D5A068AD
:100E400020F4605040F4E060A060A068A96820F041
:100E5000F000084304E0802F03D1A06820F0F000E8
:100E6000A060D8F80010404601F00F01B14216D939
:100E7000016821F00F0131430160FFF7D9FC0746FB
:100E800007E000BFFFF7D4FCC11B514501D9032087
:100E90007AE7D8F8000000F00F00B042F2D12878CD
:100EA000400705D5A068E96820F4E0600843A06029
:100EB0002878000706D5A068296920F4605040EA28
:100EC000C100A06000F044F8A1680C4AC1F303110E
:100ED000515C01F01F01C8400949086009480068D9
:100EE000BDE8F047FFF7C2BC0020024000100240FE
:100EF00000B4C4040024F40000366E012627000864
:100F00001000002004000020054806490068896898
:100F1000054AC1F30221515C01F01F01C84070472E
:100F2000100000200010024036270008054806493E
:100F300000688968054AC1F3C221515C01F01F01B4
:100F4000C8407047100000200010024036270008FB
:100F5000184910B58868C0F381021748012A0BD0E0
:100F60008A68164BC2F38102022A06D08A68C2F34D
:100F70008102032A03D0002010BD184610BDCA68A4
:100F800002F00304CA68C2F30312521C032C02D0FD
:100F9000B0FBF2F001E0B3FBF2F0CA68C968C2F33B
:100FA00006225043C1F34161491C4900B0FBF1F0F6
:100FB00010BD0000001002400024F40000366E0155
:100FC0002DE9F84304007AD02078FA4DC00747D0C5
:100FD000A868E96800F00C0001F003010C2802D0B9
:100FE000082817D001E0032914D06068B0F5803FCD
:100FF00017D0B0F5A02F286817D020F480302860D3
:10100000286820F4802028606068E0B1FFF710FCB9
:10101000064614E02868800322D560680028D2D0F4
:101020001EE0286840F48030EDE740F4802028601E
:10103000F7E700BFFFF7FCFB801B642870D8286827
:101040008003F7D50CE0FFF7F3FB064605E000BF91
:10105000FFF7EEFB801B6428F0D828688003F7D4E4
:10106000207880074CD5A868E96800F00C0001F0F2
:1010700003010C2802D004280DD001E002290AD077
:10108000E068002828682BD040F480702860FFF7C3
:10109000CFFB064619E02868400502D5E068002825
:1010A00091D06868217C20F0FE4040EA01606860D1
:1010B000C1480068FFF7DAFB002800D120E076E1A4
:1010C000FFF7B6FB801B0228B8D828684005F7D583
:1010D0006868217C20F0FE4040EA016068600FE013
:1010E00020F480702860FFF7A3FB064605E000BFF0
:1010F000FFF79EFB801B0228A0D828684005F7D484
:101100002078000729D560690028D5F8940013D00D
:1011100040F00100C5F89400FFF78AFB064606E0A0
:1011200090E000BFFFF784FB801B022886D8D5F82B
:1011300094008007F6D510E020F00100C5F8940077
:10114000FFF776FB064604E0FFF772FB801B0228E0
:1011500078D8D5F894008007F6D42078400761D578
:10116000A86D0026C00008D4A86D40F08050A86586
:10117000A86D012600F08050009090480168C905D4
:1011800011D40168804641F480710160FFF750FB83
:10119000074604E0FFF74CFBC01B022852D8D8F8E2
:1011A0000000C005F6D5A068012815D00528D5F89F
:1011B000900016D020F00100C5F89000D5F89000FE
:1011C00020F00400C5F89000A06841F28838B8B15A
:1011D000FFF72EFB07460EE0D5F8900040F0010027
:1011E000F0E740F00400C5F89000F5E7FFF720FBBA
:1011F000C11B414526D8D5F890008007F6D50CE0F4
:10120000FFF716FB074604E0FFF712FBC11B414541
:1012100018D8D5F890008007F6D41EB1A86D20F03C
:101220008050A8652078800629D5A0690028D5F8C7
:10123000980013D040F00100C5F89800FFF7F8FAC5
:10124000064606E077E000BFFFF7F2FA801B0228AF
:1012500077D8D5F898008007F6D510E020F0010087
:10126000C5F89800FFF7E4FA064604E0FFF7E0FA55
:10127000801B022865D8D5F898008007F6D4E0696D
:10128000F0B3A968C1F38101032961D0022828685D
:1012900020F0807028600BD0E86820F00300E86040
:1012A000E86847490840E860FFF7C2FA04464BE0A7
:1012B000FFF7BEFA064604E0FFF7BAFA801B0228E1
:1012C0003FD828688001F7D4F4E908016FF00F02D5
:1012D00002EB01110843218A5204490802EB4151F3
:1012E000A26841EA02210843217D4FF07E4249086D
:1012F00002EB41610843217B40EAC160E96800E0FC
:1013000062E0304A11400843E860286840F080708D
:101310002860E86840F08070E860FFF789FA0446CA
:1013200005E000BFFFF784FA001B022809D82868EF
:101330008001F7D548E004E0FFF77AFA001B0228A5
:1013400002D90320BDE8F88328688001F4D43BE08B
:101350000128F7D0E868226A00F00301914226D103
:10136000616A00F0F0020901103991421FD1A26AAE
:1013700000F4FE41B1EB022F19D194F82C2000F0BB
:101380007841B1EBC26F12D1218E00F4C00249083E
:101390004905A1F50011914209D194F8341000F0EB
:1013A000C06049084906A1F1007181420CD00120BA
:1013B000C8E7000000100240040000200070004058
:1013C000FFFFEEFE0C809F010020BBE74FF0E02105
:1013D0000428086903D020F004000861704740F039
:1013E0000400FAE710B5401EB0F1807F01D3012060
:1013F00010BD4FF0E02460610F21601701F0F4F898
:101400000020A06107202061002010BD90F880100E
:10141000012918D0012180F880102421C0F88410FF
:1014200050F8641B0A680B6823F001030B6022F07C
:1014300000510022026050F8643C196020210162D2
:10144000027710467047022070477047704770B5AA
:10145000044690F8800001281DD0012084F8800007
:101460002420C4F8840020680568026822F0010284
:1014700002602068826822F060620A43826020462F
:1014800000F0EAFD206805602020C4F884000020F8
:1014900084F8800070BD022070BD70B5044690F8DD
:1014A000800001281DD0012084F880002420C4F889
:1014B000840020680568026822F00102026020684A
:1014C000826822F060420A438260204600F0C4FD38
:1014D000206805602020C4F88400002084F8800083
:1014E00070BD022070BD7047704770472DE9F04114
:1014F00003680446D86919689A6840F60F052842BF
:101500004FF0000509D186067ED501F0200602F0D5
:1015100080573E4378D0216F27E1A94EA94F16404E
:101520000F40374370D0C70709D0CF0507D5012733
:101530001F62D4F88C3043F00103C4F88C30830769
:101540000AD5D30708D0276802233B62D4F88C3031
:1015500043F00403C4F88C3043070AD5D30708D0FE
:10156000276804233B62D4F88C3043F00203C4F8AC
:101570008C3003070CD501F02003334308D02668D4
:1015800008233362D4F88C3043F00803C4F88C305D
:1015900003050BD54B0109D526684FF40063336270
:1015A000D4F88C3043F02003C4F88C30D4F88C305D
:1015B000002B3AD0800609D501F0200002F08051BE
:1015C000084303D0216F09B120468847D4F88C0026
:1015D00021688968490602D410F0280F27D02046D8
:1015E00000F0FAFD2068806840061BD520680830AE
:1015F00050E8001F21F0400140E80012002AF5D118
:10160000E06F78B1704900E017E08163E06FFEF7AA
:1016100089FF002809D0E06F816B00E02046BDE81B
:10162000F04108472046FFF760FFBDE8F081204603
:10163000FFF75BFFC4F88C50F7E7E76E2026012F19
:101640007ED1C7067CD5CF067AD5102018622068D7
:101650008068400642D5E16F086840680004000CCD
:10166000E3D0B4F85C208242DFD9A4F85E000868B9
:10167000006880062BD4206850E8001F21F4807198
:1016800040E80012002AF6D12068083050E8001F18
:1016900021F0010140E80012002AF5D1206808304D
:1016A00050E8001F21F0400140E80012002AF5D167
:1016B000C4F88860E566216851E8000F20F010004A
:1016C00041E80002002AF6D1E06FFEF7F6FEB4F81A
:1016D0005C00B4F85E10401A81B22CE0B4F85C00F3
:1016E000B4F85E10401A81B2B4F85E0000289CD0B5
:1016F00000299AD0226852E8000F20F4907042E846
:101700000003002BF6D12E4BDB432068083050E855
:10171000002F1A4040E80027002FF6D1C4F8886057
:10172000E5662567226852E8000F20F0100042E8C5
:101730000003002BF6D12046FFF787FE75E7FFE791
:10174000C70209D5570207D54FF48010186220460A
:10175000BDE8F041FFF7C8BE03060AD501F08003DB
:1017600002F40002134304D0616F00297FF456AFE6
:101770005BE7420611D54A060FD52046016851E8BD
:10178000002F22F0400241E80023002BF6D1C0F8E0
:101790008460456700F096F847E7020206D54A00E4
:1017A00004D52046BDE8F041FFF79DBEC001C5D578
:1017B0000029C3DA2046BDE8F041FFF747BE00002C
:1017C0000100001020010004C521000810B504002C
:1017D00003D0D4F8840010B107E0012010BD002030
:1017E00084F88000204600F027F82420C4F8840004
:1017F0002068016821F001010160204600F016FD1B
:101800000128EBD0A06A10B1204600F047FC206808
:10181000416821F4904141602068816821F02A01EB
:1018200081602068016841F0010101602046BDE847
:10183000104000F097BC000010B59CB00446142185
:1018400015A8FEF7D0FD54216846FEF7CCFD1A49D5
:10185000206888422ED101200024CDE9000468468A
:10186000FFF7E4F808B1FEF726FE1448016E41F4D4
:1018700080410166016E01F480411A91C16C41F012
:101880000401C164C06C15A900F004001A90302056
:1018900015900220CDE916040720CDE9184008482C
:1018A000FEF798FE002211462520FFF727F8252095
:1018B000FFF716F81CB010BD0038014000100240C0
:1018C000000800487047FEE770B50D46044600F07A
:1018D0005FF8782000F020F800F0B0F8204600F023
:1018E0001BF800F0ABF8284600F016F800F0A6F858
:1018F000BDE8704000F076B810B5064C0122110228
:101900002046FEF790FF20460122BDE8104051021C
:10191000FEF789BF000400482DE9F0411B4C064644
:101920002046216821F440212160216841F4802172
:1019300021604FF4007700223946FEF774FF00253E
:101940004FF48078300601D5012200E000224146A4
:101950002046FEF768FF7006060E022000F064FEC7
:10196000012239462046FEF75EFF022000F05CFEB1
:10197000002239462046FEF756FF022000F054FEB2
:101980006D1CEDB2082DDDD3BDE8F08100040048E8
:1019900070B5134C206820F440202060206840F48B
:1019A000802020600122150229462046FEF73BFFD9
:1019B0000122560231462046FEF735FF042000F092
:1019C00033FE002229462046FEF72DFF042000F0BA
:1019D0002BFE31462046BDE870400022FEF723BFB3
:1019E0000004004870B5144C206820F440202060AA
:1019F000206840F4802020604FF4007500222946C2
:101A00002046FEF710FF6E10002231462046FEF7FA
:101A10000AFF042000F008FE012229462046FEF7B6
:101A200002FF012231462046FEF7FDFEBDE8704070
:101A3000042000F0F9BD0000000400482DE9F04149
:101A4000184C0025206820F4402020602068206089
:101A50000122160231462046FEF7E5FE012000F085
:101A6000E3FD0122570239462046FEF7DCFE012045
:101A700000F0DAFD08E06D1CEDB2FA2D04D9FFF795
:101A8000B1FF0120BDE8F08131462046FEF7C6FED9
:101A90000028F0D1002239462046FEF7C4FE00207F
:101AA000F0E700000004004830B587B01421684614
:101AB000FEF799FC2448C16C41F00401C164C16C7B
:101AC00001F004010591C16C41F02001C164C16CB9
:101AD00001F020010591C16C41F00101C164C16CAC
:101AE00001F001010591C16C41F00201C164C06CBB
:101AF000164D00F002004FF440740590002221467C
:101B00002846FEF790FE4FF4005000904FF48810E6
:101B100001900020029069460D48FEF75BFD112000
:101B2000CDE9004001200290032003906946284639
:101B3000FEF750FD002211462820FEF7DFFE282088
:101B4000FEF7CEFE07B030BD001002400004004892
:101B500000080048184810B5164901604FF4E131FB
:101B60004160002181600C22C160C0E904128161E2
:101B7000C161016241628162FFF728FE08B1FEF790
:101B80009AFC00210C48FFF788FC08B1FEF793FC93
:101B900000210948FFF75BFC08B1FEF78CFC064802
:101BA000FFF734FC002803D0BDE81040FEF783BCEB
:101BB00010BD00000038014048020020FEE7000090
:101BC0000A4A01200849526808E00B1813F8013C42
:101BD0000D2B02D10B5C0A2B04D0401C9042F4D395
:101BE0000020704701207047D80200203C020020EE
:101BF000094881680968C96989060CD507490A68D6
:101C0000074B41685A54491C4160642903D10021A3
:101C100041600121017070473C02002024380140DE
:101C2000D8020020034988600068016841F0200163
:101C3000016070473C02002030B50546FFF7C0FF49
:101C4000002815D00C4800240C4A40680AE0115DB9
:101C5000295534B12B1913F8013C0D2B01D10A2958
:101C600007D0641C8442F2D3204600F0A7FC204633
:101C700030BD641CF8E700003C020020D8020020C0
:101C8000044989680968CA695206FCD50249086096
:101C9000704700003C0200202838014010B504467F
:101CA0000023E05C20B1FFF7EBFF5B1C642BF8D353
:101CB0000D20FFF7E5FF0A20FFF7E2FF9B1C642BD6
:101CC00001D2012010BD002010BDFEE7002000F071
:101CD00001B8000070B506465FF0000404F1B000E2
:101CE000C0B200F062FC002000F05FFC102000F0A9
:101CF0005CFC0025304600F05CFC6D1CEDB2802DD4
:101D0000F8D3641CE4B2082CE8D370BD10B5FFF71B
:101D1000F3FD642000F082FCAE2000F046FC2020A1
:101D200000F043FC102000F040FCB02000F03DFC2F
:101D3000C82000F03AFC002000F037FC102000F032
:101D400034FC402000F031FC812000F02EFC204CBF
:101D5000607800F02AFCA12000F027FC207808B170
:101D6000A62000E0A72000F020FCA82000F01DFC29
:101D70003F2000F01AFCA42000F017FCD32000F054
:101D800014FC002000F011FCD52000F00EFCF02027
:101D900000F00BFCD92000F008FC222000F005FC2C
:101DA000DA2000F002FC122000F0FFFBDB2000F044
:101DB000FCFB202000F0F9FB8D2000F0F6FB142046
:101DC00000F0F3FBBDE81040AF2000F0EEBB0000D8
:101DD0001600002010B50446B031C8B200F0E5FB93
:101DE000102040EA141000F0E0FB04F00F00BDE802
:101DF000104040F0010000F0D8BB00002DE9F04198
:101E00000024203A0F468046012B21D0022B1DD101
:101E1000D6B2FFF7DFFF164D04EB0610285C00F08A
:101E2000C8FB641CE4B2082CF6D37F1CF9B2404610
:101E3000FFF7D0FF5FF0000404EB06102844007A9F
:101E400000F0B7FB641CE4B2082CF5D3BDE8F081C8
:101E5000D5B2FFF7BFFF074905EB450001EB400591
:101E6000285D00F0A6FB641CE4B2062CF8D3EDE775
:101E70007429000846270008FEB5151E064605D041
:101E800009DA2D208DF80000554207E03022FFF7D7
:101E9000B5FF0120FEBD20208DF8000001246A4618
:101EA0000A2008E095FBF0F700FB175795FBF0F5CB
:101EB00030371755641C002DF4DC0020105501202C
:101EC00004EBD4750AE000BF271A12F800E012F8FC
:101ED00007C002F800C002F807E0401CB0EB650F35
:101EE000F2DD9DF800002D28304604D0521C00F091
:101EF00007F8601EFEBD00F003F82046FEBD00009E
:101F00002DE9F047002591468A460446012B22D050
:101F1000DFF8BC80022B24D155E02038C7B27E2CDC
:101F200004D90AF10100002400F0FF0A51462046BE
:101F3000FFF750FF07EB4700002608EB4007B85DAE
:101F400000F037FB761CF6B2062EF8D3A41D6D1CEC
:101F5000E4B2EDB201E0DFF87C8019F8050000285A
:101F6000DBD1BDE8F0872038C7B2782C04D90AF15C
:101F70000100002400F0FF0A51462046FFF72AFF27
:101F80005FF0000606EB071118F8010000F011FBE6
:101F9000761CF6B2082EF5D30AF10100C1B2204634
:101FA000FFF718FF5FF0000606EB071101EB0800D2
:101FB000007A00F0FEFA761CF6B2082EF4D308344C
:101FC0006D1CE4B2EDB219F805000028CBD1C8E7CA
:101FD000742900084627000870477047FEF72EBC9A
:101FE00010B594B038216846FEF7FDF914210EA80B
:101FF000FEF7F9F90020FEF7B3FC01200090000481
:10200000032406210190CDE9084102205521CDE9A4
:102010000A1007900C900D906846FEF7D1FF08B1AA
:1020200072B6FEE70F20CDE90E040020109011904B
:10203000129004210EA8FEF779FE002801D072B696
:10204000FEE714B010BD00000248016841F47001C1
:102050000160704788ED00E030B5416EB9B10268AB
:1020600091689268C1F342610B4B520F9C5CE50092
:1020700003F10804A25CB5FBF2F2A0F86A205A5CF6
:10208000615CD200B2FBF1F1A0F8681030BD012113
:10209000A0F86A10F8E700001627000890F828104A
:1020A000C90706D001684A68C36A22F400321A439D
:1020B0004A6090F82810890706D501684A68036BC2
:1020C00022F480321A434A6090F82810490706D556
:1020D00001684A68436B22F480221A434A6090F8F0
:1020E0002810090706D501684A68836B22F400426C
:1020F0001A434A6090F82810C90606D501688A6814
:10210000C36B22F480521A438A6090F82810890623
:1021100006D501688A68036C22F400521A438A606B
:1021200090F82810490611D501684A68436C22F4DA
:1021300080121A434A60416CB1F5801F06D10168D4
:102140004A68836C22F4C0021A434A6090F828104F
:10215000090606D501684A68C06C22F400220243D1
:102160004A607047F8B500260446C0F88C60FEF758
:102170005FFB0546206800686FF07E47000708D5C2
:102180002B4600224FF400112046009700F09AF9E8
:1021900060B92068006840070AD52B4600224FF43A
:1021A00080012046009700F08DF908B10320F8BDAA
:1021B0002020C4F88400C4F8880044F86C6F002024
:1021C0002675F8BD10B5806A0021A0F85E10A0F851
:1021D0005610FFF78AF910BD10B5026852E8001FCB
:1021E00021F4907142E80013002BF6D10E4B0268E7
:1021F000083252E8001F194042E80014002CF6D1C2
:10220000C16E012908D1016851E8002F22F01002A7
:1022100041E80023002BF6D12021C0F888100021CE
:10222000C166016710BD0000FEFFFFEF2DE9F04120
:102230000446016880682269E369104362690025E9
:102240001A431043DFF84CC20A68934B1A4002430A
:102250000A6020684168E26821F4405111434160FE
:102260002168A069614501D0226A10438A688B4BBE
:102270001A4002438A602068C16A626A21F00F0135
:102280001143C1628649236886488B420DD1D0F83C
:10229000880010F0030006D0012867D0022854D02F
:1022A000032851D164E001204FE07F498B420BD1DC
:1022B000D0F8880010F00C0047D0042845D008283A
:1022C00052D00C2840D153E078498B420BD1D0F842
:1022D000880010F0300038D0102847D0202843D094
:1022E000302831D144E072498B420BD1D0F88800BC
:1022F00010F0C00029D0402838D0802834D0C02821
:1023000022D135E06B498B420ED1D0F8880010F411
:1023100040701AD0B0F5807F28D0B0F5007F23D070
:10232000B0F5407F10D123E063450DD1D0F888008F
:1023300010F4406009D0B0F5806F17D0B0F5006F91
:1023400012D0B0F5406F13D010205B4A5B4F0026CF
:102350004FF40041634539D160B102280DD0042803
:102360000DD0082831D10EE00220EEE70420ECE782
:102370000820EAE7FEF7C8FD03E0114603E0FEF798
:10238000E7FD01007BD0606A37F810206768B1FB79
:10239000F2F007EB4703834269D8B0EB073F66D8FA
:1023A000002308461946FDF7A7FF090241EA10611C
:1023B00002027808101871413A460023FDF79CFF8D
:1023C0003F4AA0F54071914257D950E0E3694FF67A
:1023D000EF788B422BD1092849D2DFE800F00508BD
:1023E0000D48254848480E00FEF78EFD01E0FEF737
:1023F0009DFD010001D142E01146606A37F81000EE
:10240000B1FBF0F04100606801EB5001B1FBF0F16D
:10241000A1F1100040452AD84FF6F07201EA0200FF
:10242000C1F34201084328E0FEF792FDE1E70928E5
:102430001DD2DFE800F005080D1C1E1C1C1C0E0040
:10244000FEF762FD01E0FEF771FD010001D116E02B
:102450001146606A37F81000B1FBF0F1606801EBDB
:102460005001B1FBF0F0A0F11001414504D9012564
:1024700005E0FEF76DFDE8E780B22168C860012045
:10248000A4F86A0024F8680F2846A660E660BDE854
:10249000F081000000800040F369FFCFFFF4FF11DE
:1024A0000038014000100240004400400048004055
:1024B000004C0040005000400024F400FE260008BC
:1024C000FFFC0F002DE9F0479A4617460E460446DA
:1024D0004FF000094FF02008089D4AE0681C48D0E2
:1024E000FEF7A6F9A0EB0A00A8422AD84DB320684F
:1024F000016849073DD5C069C043000539D421684A
:102500004FF400600862206850E8001F21F4D07189
:1025100040E80012002AF6D12068083050E8001F79
:1025200021F0010140E80012002AF5D144F8848F1F
:10253000C4F80480C4F8088004F8049C0320BDE8B3
:10254000F087216851E8000F20F4D07041E80002C4
:10255000002AF6D12068083050E8001F21F0010160
:1025600040E80012002AF5D144F8848FC4F80480B2
:10257000E2E72068C06936EA000004D00020B842D3
:10258000ACD00020DBE70120F9E7000010B50448DB
:10259000FFF72EFBBDE810400248FEF7A7BF000082
:1025A0000038014048020020FEE701460020FFF706
:1025B0008BB901464020FFF787B9000010B5002114
:1025C000074AC0F1640303E00C18145D5454491C1D
:1025D0008B42F9D803494A68101A486010BD0000C0
:1025E000D80200203C0200200907090E002804DB65
:1025F00000F1E02080F80014704700F00F0000F1B7
:10260000E02080F8141D704710B504460420FEF742
:10261000DDFE0148048010BD140000204FF47A71E3
:10262000484300F001B8000070B54FF0E0240022EC
:1026300065690949A36909884843A1699942FCD0A1
:1026400002D2A3EB010302E0A5EB010633441A44D6
:102650000B468242F1D370BD140000209AB0FEF701
:10266000F5F8FFF7BDFCFFF71FFAFFF773FAAA2092
:10267000FFF7CAFF1548FFF7D5FAFFF747FBFFF74B
:1026800025FB022312A203212820FFF739FC68460C
:10269000FFF7D2FA98B110A0FFF700FB6846FFF7EA
:1026A000FDFA9DF80000302803D19DF80100312883
:1026B00009D002230BA203212820FFF721FC0520CB
:1026C000FFF7ACFFE3E7022308A2F4E7480200208B
:1026D0005354415254000000C4E3B7A2CBCDB5C45B
:1026E000CAC7000046414C534500000052494748C4
:1026F000540000004FF04070E1EE100A70470100F6
:1027000002000400060008000A000C00100020006F
:1027100040008000000101010103070100000804DE
:102720000204080101010000000000000000010295
:102730000304060708090000000001020304030265
:102740000106000504070000000000000000002F43
:10275000000000000700070000147F147F1400240D
:102760002A7F2A120062640813230036495522503A
:1027700000000503000000001C224100000041226F
:102780001C000014083E08140008083E0808000059
:1027900000A0600000080808080800006060000051
:1027A000002010080402003E5149453E0000427FCF
:1027B0004000004261514946002141454B3100181B
:1027C00014127F10002745454539003C4A494930DD
:1027D0000001710905030036494949360006494997
:1027E000291E0000363600000000563600000008A2
:1027F000142241000014141414140000412214087F
:1028000000020151090600324959513E007C121163
:10281000127C007F49494936003E41414122007FF8
:102820004141221C007F49494941007F09090901B2
:10283000003E4149497A007F0808087F0000417F37
:102840004100002040413F01007F08142241007FE9
:1028500040404040007F020C027F007F0408107F50
:10286000003E4141413E007F09090906003E4151B9
:10287000215E007F09192946004649494931000176
:10288000017F0101003F4040403F001F2040201FCA
:10289000003F4038403F006314081463000708708D
:1028A000080700615149454300007F414100005540
:1028B0002A552A55000041417F000004020102040C
:1028C00000404040404000000102040000205454F9
:1028D0005478007F48444438003844444420003849
:1028E0004444487F00385454541800087E090102BB
:1028F0000018A4A4A47C007F080404780000447D90
:102900004000004080847D00007F102844000000CB
:10291000417F4000007C04180478007C080404789F
:1029200000384444443800FC24242418001824248B
:1029300018FC007C08040408004854545420000487
:102940003F444020003C4040207C001C2040201C94
:10295000003C4030403C004428102844001CA0A00B
:10296000A07C004464544C44141414141414FFFF49
:10297000FFFFFFFF0000000000000000000000005B
:1029800000000000000000F800000000000000331C
:102990003000000000100C06100C060000000000C3
:1029A0000000000040C07840C0784000043F0404AC
:1029B0003F040400007088FC08300000001820FF6D
:1029C000211E0000F008F000E018000000211C03A8
:1029D0001E211E0000F00888700000001E21232424
:1029E0001927211010160E00000000000000000042
:1029F00000000000000000E01804020000000007D2
:102A00001820400000020418E000000000402018D8
:102A100007000000404080F0804040000202010FAB
:102A200001020200000000F0000000000101011F8F
:102A300001010100000000000000000080B07000F3
:102A40000000000000000000000000000001010183
:102A50000101010100000000000000000030300012
:102A600000000000000000008060180400601806EC
:102A70000100000000E010080810E000000F102026
:102A800020100F00001010F8000000000020203F70
:102A900020200000007008080888700000302824FA
:102AA000222130000030088888483000001820209B
:102AB00020110E000000C02010F8000000070424C0
:102AC000243F240000F80888880808000019212005
:102AD00020110E0000E0108888180000000F11205F
:102AE00020110E0000380808C83808000000003F18
:102AF000000000000070880808887000001C222177
:102B000021221C0000E010080810E0000000312223
:102B100022110F00000000C0C000000000000030C3
:102B20003000000000000080000000000000806015
:102B30000000000000008040201008000001020496
:102B4000081020004040404040404000040404047D
:102B50000404040000081020408000000020100839
:102B600004020100007048080808F000000000306E
:102B700036010000C030C828E810E00007182724FC
:102B800023140B000000C038E0000000203C2302AA
:102B90000227382008F8888888700000203F20200D
:102BA00020110E00C030080808083800071820203F
:102BB0002010080008F808080810E000203F202036
:102BC00020100F0008F88888E8081000203F202017
:102BD0002320180008F88888E8081000203F20000B
:102BE00003000000C0300808083800000718202043
:102BF000221E020008F808000008F808203F210102
:102C000001213F20000808F8080800000020203FAC
:102C10002020000000000808F8080800C08080801C
:102C20007F00000008F888C028180800203F200115
:102C30002638200008F8080000000000203F20206F
:102C40002020300008F8F800F8F80800203F003F86
:102C5000003F200008F830C00008F808203F20009E
:102C600007183F00E01008080810E0000F102020AF
:102C700020100F0008F808080808F000203F210184
:102C800001010000E01008080810E0000F182424DB
:102C900038504F0008F8888888887000203F20004E
:102CA000030C302000708808080838000038202104
:102CB00021221C00180808F8080818000000203F0E
:102CC0002000000008F808000008F808001F202075
:102CD00020201F000878880000C838080000073846
:102CE0000E010000F80800F80008F800033C070097
:102CF000073C0300081868808068180820302C03FF
:102D0000032C30200838C800C83808000000203FD5
:102D10002000000010080808C838080020382621C4
:102D200020201800000000FE020202000000007FC8
:102D300040404000000C30C00000000000000001D6
:102D40000638C00000020202FE00000000404040C1
:102D50007F000000000004020202040000000000E6
:102D60000000000000000000000000008080808063
:102D7000808080800002020400000000000000004B
:102D800000000000000080808080000000192422E4
:102D900022223F2008F8008080000000003F112020
:102DA00020110E000000008080800000000E112025
:102DB00020201100000000808088F800000E112003
:102DC00020103F200000808080800000001F222211
:102DD00022221300008080F0888888180020203F7D
:102DE000202000000000808080808000006B949490
:102DF0009493600008F8008080800000203F21004C
:102E000000203F2000809898000000000020203F14
:102E100020200000000000809898000000C0808002
:102E2000807F000008F8000080808000203F24029E
:102E30002D302000000808F8000000000020203F8E
:102E4000202000008080808080808000203F200043
:102E50003F20003F8080008080800000203F2100D4
:102E600000203F200000808080800000001F202084
:102E700020201F00808000808000000080FFA120B3
:102E800020110E000000008080808000000E1120C4
:102E900020A0FF80808080008080800020203F2153
:102EA0002000010000008080808080000033242406
:102EB00024241900008080E0808000000000001FB2
:102EC000202000008080000000808000001F202063
:102ED00020103F20808080000080808000010E3024
:102EE0000806010080800080008080800F300C0385
:102EF0000C300F0000808000808080000020312E88
:102F00000E312000808080000080808080818E7063
:102F10001806010000808080808080000021302C15
:102F20002221300000000000807C0202000000002E
:102F3000003F404000000000FF00000000000000D3
:102F4000FF0000000002027C800000000040403FC3
:102F5000000000000006010102020404000000005D
:102F600000000000842F000800000020480200003C
:102F700014020008443100084802002058070000ED
:102F80007002000841321082012B24F40E12FF1C43
:102F9000108C84012B85F6061484940C10102020CC
:102FA0001008040201FF010204081020201608097D
:102FB000CEB8082C027A4A01137A02191B111203A7
:102FC0001EFF4949497F0419401560020CC0100AD0
:102FD000F8888888FF8888A818101004047C03806B
:102FE000601F80432C10284681803D808282FE0332
:102FF0001A8059138660258040300F22FF17808485
:103000004221100C1010407C407F484840F2121AB8
:10301000D61212F2022010908E404F201E804F20B8
:10302000180710204F80200E14A4442434AD6624C9
:10303000940444A414180C08090808090909FD0996
:10304000090B0922084EF808FF08F8A1247A0202A9
:10305000120F1BFF080439A01967111AF06D180A26
:10306000F080904C57A4544C8450180F1F100F0838
:103070001F10101515FF1515101088200D60F8078A
:1030800004E4A4A4BFA4A4E4041A019D3C40407F2E
:10309000EF847F40404BFF0801290B6A4101295F03
:1030A0002010100C442414040506040414244414B1
:1030B0000C2B40401B2A7F05493F1BFE4001112E6F
:1030C000FF804020103F111C7F2020782A3F1623CC
:1030D000407828090202C2020202FE820119BF19C9
:1030E000151977390439381602E222223E280808D9
:1030F0008848390E08C880154382423E2009217154
:1031000029252321287039961DF8898E880139A038
:1031100019681B1807485480403F8B04840119E04C
:10312000CA200111300E2010E824272424E424347E
:103130002C20E01D80601F090107127F09094989C1
:043140007F0000000C
:04000005080001D915
:00000001FF
